:020000021000EC
:10C000000000022045F10100A1F10100410F0200F2
:10C01000A5F10100A7F10100A9F101000000000055
:10C02000000000000000000000000000216C020081
:10C03000ADF1010000000000416C0200B1F101000F
:10C04000ED940200B3F10100ADC10200119D0200A8
:10C0500061A90200B3F1010079990200B3F1010076
:10C06000B3F101003DA50200B3F101004D9C0200B7
:10C07000B3F1010005C60200B3F10100B3F1010004
:10C0800051AA0200716E0200B3F10100B3F1010088
:10C09000B3F10100B3F10100BDE30200B3F101000F
:10C0A000B3F10100B3F10100B3F1010095A5020065
:10C0B000B3F10100B3F10100000000000000000036
:10C0C000B3F10100B3F10100B3F10100299D0200B9
:10C0D0005D9C0200B3F10100B3F101009DBF0200BD
:10C0E000B3F10100000000000000000000000000AB
:10C0F00000000000B3F1010000000000419D0200BB
:10C10000000000000000000000000000000000002F
:10C11000000000000000000000000000000000001F
:10C12000000000000000000000000000000000000F
:10C1300000000000000000000000000000000000FF
:10C1400000000000000000000000000000000000EF
:10C1500000000000000000000000000000000000DF
:10C1600000000000000000000000000000000000CF
:10C1700000000000000000000000000000000000BF
:10C1800000000000000000000000000000000000AF
:10C19000000000000000000000000000000000009F
:10C1A000000000000000000000000000000000008F
:10C1B000000000000000000000000000000000007F
:10C1C000000000000000000000000000000000006F
:10C1D000000000000000000000000000000000005F
:10C1E000000000000000000000000000000000004F
:10C1F000000000000000000000000000000000003F
:10E000000901000B0B030100004100000100FFFFAC
:10E01000FFFFFFFFFFFFFFFFFFFFFFFFFFFF00000E
:10E02000000000000000000034FEFEFEFE000000C4
:10E0300000000100154015402E0000000001000006
:10E04000570400000200030100000000000000006F
:10E0500064000000E047000060090000090B0002B6
:10E0600003040000010000000000000005000000A3
:10E07000000000000000000101000000000000009E
:10E080000000000000000000000000000000000090
:10E090000000000000000000000000000000000080
:10E0A0000000000000000000000000000000000070
:10E0B0000000000000000000000000000000000060
:10F00000314932480A1A02D0072291438D463049CD
:10F0100030480A1A06D00722914381F30988022258
:10F0200082F314882C482D492D4A00F03CF82D48D5
:10F030002D492E4A00F037F82D482E492E4A00F06F
:10F0400032F82E482E492F4A00F02DF82E482F492D
:10F050002F4A00F028F82F482F49304A00F023F8B3
:10F060002F483049304A00F01EF83048304900221D
:10F0700000F024F82F483049002200F01FF82F4AF2
:10F0800090471F481F49884205D00268043003B4E6
:10F09000904703BCF7E700208646EC46002000219D
:10F0A000274A9047FEE7884207D0521A05D00378D6
:10F0B00001300B700131013AF9D17047884202D01A
:10F0C00002700130FAE770470000022000F80120CA
:10F0D00000000220000002202C4105002026002014
:10F0E000E4270020B8F10100B8F1010014CB0400BE
:10F0F0002C410500202600202026002024CD0400DD
:10F1000024CD040024CD040024CD040024CD04002B
:10F1100024CD040024CD040024CD04002A410500A0
:10F12000F0420500E4270020E4270020E427002027
:10F130009CE300209CE300209CE300206DF1010093
:10F14000310D030000F036B80F484FF00701884337
:10F1500085460E4880470E48016841F47001016001
:10F16000BFF34F8FBFF36F8FFFF74ABF09480A49BC
:10F170000A4A884207D0521A05D0037801300B7032
:10F180000131013AF9D1704700000220D96702002D
:10F1900088ED00E0BCCC04000C26002020260020D6
:10F1A000FEE7FEE7FEE7FEE7FEE7FEE7FEE7FEE737
:08F1B000FEE7FEE7FFF7C8BF10
:10F1B800FEE7FEE7704700BF00B583B0044B00933D
:10F1C800044A402300F036F803B05DF804FB00BFA2
:10F1D800E1F10100E827002002B32DE9F843114BC3
:10F1E800114E88461446032743F00109002522469C
:10F1F80008EB050100200DF035FB0346E41A4FF437
:10F208007A401D4423B9337833B1C847013F06D04B
:10F2180001233370002CEAD1BDE8F88370473770BA
:10F22800BDE8F88330CD0400E4270020704700BF14
:10F238000DF05CBBF0B595B0084600240E461746A5
:10F248001D4602F071FE1A9A0D922346082205A95E
:10F258003046CDE9095408978DF82C400C9402F0FB
:10F26800A7FEDDE906219DF814308DF81140CDE99F
:10F27800021203F00302012A28D0022A04D03046E1
:10F2880002F056FE15B0F0BDBDF81650C3F3C20328
:10F29800C5F389158DF810300827082D2C4628BF8E
:10F2A80008243B4622460EA9304602F081FE2D1B5B
:10F2B80008AB02AA21460EA8274400F0EDFE002D57
:10F2C800EBD1304602F034FE15B0F0BDBDF8141095
:10F2D8000598C1F38312C3F3C203C0F39525C1F3A4
:10F2E80083148DF810300EA930469200082302F0DE
:10F2F8005FFE08AB0093224602AB0EA9284600F039
:10F3080055FE304602F014FE15B0F0BD08B5FFF703
:10F318008FFF0948042100F0C9FD002803DB074BD3
:10F3280001225A7108BD0649412011F0EFFC034B38
:10F3380001225A7108BD00BFACCC04002026002071
:10F3480044CD040070B5314C84B004F5836001F0FD
:10F358004BFF04F2144001F047FFD4E9013503EAFA
:10F368000501CA1C04EB820C14F8222050072ED485
:10F3780004EB81015A1CC86801902A4004EB820200
:10F3880000F003010129D56803F102062ED00229F5
:10F3980033D01F494FF4BF7011F0B8FC00251D4849
:10F3A80001F02EFF00B16660284604B070BD022847
:10F3B80006D1BCF80220023303EB921303EA0501DD
:10F3C800C81C04EB800C14F820004207D0D59CF828
:10F3D800000000F003000128E9D1BCF80020023346
:10F3E800C2F38312134403EA0501E9E7BDF80430C8
:10F3F800C3F383132D0C1E44D1E7BDF80630C3F3C5
:10F40800891303332D0C06EB9306C8E7242A002042
:10F41800C0CD0400382E00200B4B0C4810B500223C
:10F42800FF21C3F81824C3E900229960C3F8142403
:10F4380083F8202402F02CFD044610B9044802F099
:10F44800CDFD204610BD00BF242A0020A8CB040013
:10F458003CCE040030B499B10D490E4D491BC90882
:10F4680013D00D4C002302E0013399420AD034F83E
:10F4780023208242F8D1184655F8300030BC704736
:10F48800044DF9E7002030BC70470846F6E700BF96
:10F49800ACCC0400C4CB040020260020094B013961
:10F4A80003EBC00003290BD8DFE801F004020806CB
:10F4B80004207047022070474079704700797047F0
:10F4C80000207047C4CB04002DE9F047C64CD4E9AE
:10F4D80000239A4284B000F0C0800023C4F8183496
:10F4E800BFF34F8FD4E9013503EA0501CA1C04EBC9
:10F4F800820614F8222050071BD52768327802F0BC
:10F508000302012A00F09F80022A03D17288023385
:10F5180003EB921305EA0301D4F81804CA1C04EBA0
:10F52800820630B99F4240F2948014F82220520794
:10F53800E4D404EB81019E1C0133CA6801922B407C
:10F5480004EB830302F00302DB680293022A00F053
:10F558008880012A00F0F480D4F810543DB12B685B
:10F5680028469B689847EB681D68002DF7D1002353
:10F578000DF103008DF80330D4F80880DFF8889285
:10F588009A4E00F0A9FFD4E9013127680B440133F2
:10F59800DB1BA6EB0906012B4FEAD60600F22181F8
:10F5A800934D0121284601F007FEFFF7CBFE0146E7
:10F5B800284601F001FED4E9013122680B440133E9
:10F5C8009B1A012BEDD902EA01030333023205210C
:10F5D8009DF8030044F82310226000F0B3FF84482C
:10F5E800002101F0C7FD80F31005824BB6B2A3EBF2
:10F5F8000909B6EBD90F80F0DF8008EA07027E4BD5
:10F6080094F82014013707EA080804EB8808033245
:10F618009B0246EA054643F01103C8F80C6044F81B
:10F62800223039B9D4E90030C01A18BF012004B01B
:10F63800BDE8F087FFF748FF0028F3D0FFF744FF45
:10F648000028F7D1EEE732880233C2F3831213445D
:10F6580060E7676004B0BDE8F087002004B0BDE84B
:10F66800F087BDF806306548C3F38919B9F1C80FAA
:10F67800C84628BF4FF0C80808F1080168F38F137F
:10F68800C1F30901ADF8063002F004FC0746002872
:10F698003FF462AF02F048FC0023082201A9384673
:10F6A80002F072FC25EA06030133B8EB830F4FEA38
:10F6B800830A40F28780BAF1000F00F0A78005EABC
:10F6C8000601033104EB8101524638460823A8EBB2
:10F6D8000A0802F059FC5FFA88F80AF10803484959
:10F6E80003F0FC034246384602F04EFC09F10309D8
:10F6F80006EB9906D4F81834002B6ED1D4F81054C0
:10F708005DB1EB685A79284639461AB12B681B68EF
:10F718009847EB681D68002DF3D1384602F008FCC5
:10F7280000230DF103008DF8033000F0D5FED4F866
:10F73800183403B966609DF8030000F003FF71E711
:10F74800BDF804202D48C2F38313062B28BF0623D7
:10F7580063F38912023303F00F018900ADF8042026
:10F7680002F098FB074600283FF4F6AE02F0DCFBF7
:10F778000023082201A9384602F006FCBDF804302F
:10F7880013F4707FB6D04FF00008314629404FEA95
:10F7980088030331083304EB81010422384602F060
:10F7A800F3FBBDF8043008F10108C3F383134345A4
:10F7B80006F10106E9D89DE7124940F2A31011F0BD
:10F7C800A5FA1AE705EA06010331424604EB81016E
:10F7D8000823384602F0D8FB88E7384602F0A8FB31
:10F7E80020E73A46EFE600BF242A002024CC040094
:10F7F800402E0020ACCC040024CE0400A8CB04008A
:10F80800302A0020C0CD0400C4CB0400034942467E
:10F818000823384602F0B8FB68E700BF302A00200A
:10F828002DE9F047DFF8F8A082B0002305460DF176
:10F83800070091468DF80730DAF80860884600F02E
:10F848004BFEDAE90132DAF8007013440133DB1BAE
:10F85800022B5AD80AF21C440121204601F0ACFCC4
:10F86800FFF770FD0146204601F0A6FCDAE90132F7
:10F87800DAF80010134401335B1A022BECD90A4062
:10F888000332033145239DF807004AF82230CAF8AD
:10F89800001000F057FEBB1C33400AEB83031C48E2
:10F8A800C3F80C90002101F065FC80F31009194B96
:10F8B800194A2C0C9B1AB4EBD30F20D27B1C334073
:10F8C8000AEB8303E90044EA094401F038013E40A9
:10F8D800DC6041F041019AF82034033641EA88217E
:10F8E8004AF8261013B902B0BDE8F087FFF7ECFD1F
:10F8F8000028F8D0FFF7E8FD0028F7D1F3E707491B
:10F9080040F2A31011F002FAD8E73946B7E700BF72
:10F91800402E0020ACCC0400C4CB0400C0CD0400B1
:10F92800242A00202DE9F04F3E4C83B006469A4623
:10F938000DF10700002393468DF80730A768894624
:10F9480000F0CAFDD4E90132D4F800801344013331
:10F95800A3EB0803032B62D804F21C4501212846B7
:10F9680001F02AFCFFF7EEFC0146284601F024FCD2
:10F97800D4E901322168134401335B1A032BEDD912
:10F988000A400332043185239DF8070044F82230E9
:10F99800216000F0D7FD08F102033B4004EB83032C
:10F9A8002148C3F80CB008F103033B4004EB830380
:10F9B8000021C3F80CA001F0DDFB80F3100A1B4BFB
:10F9C8001B4A350C9B1AB5EBD30F22D208F1010361
:10F9D8003B4004EB8303F10045EA0A4501F0380196
:10F9E80007EA0807DD6041F0810194F82034033705
:10F9F80041EA892144F8271013B903B0BDE8F08F14
:10FA0800FFF762FD0028F8D0FFF75EFD0028F7D168
:10FA1800F3E7084940F2A31011F078F9D6E7414618
:10FA2800AEE700BF242A0020402E0020ACCC040002
:10FA3800C4CB0400C0CD04002DE9F04FDFF810B1AD
:10FA480083B0054699460DF10700002392468DF8CC
:10FA58000730DBF80860884600F03EFDDBE901323C
:10FA6800DBF8007013440133DB1B042B66D80BF260
:10FA78001C440121204601F09FFBFFF763FC01466F
:10FA8800204601F099FBDBE90132DBF80010134452
:10FA980001335B1A042BECD90A4003320531C52324
:10FAA8009DF807004BF82230CBF8001000F04AFD13
:10FAB800BB1C33400BEB83030C9AC3F80CA0FB1C54
:10FAC80033400BEB83031E48C3F80C903B1D3340B7
:10FAD8000BEB83030021DA6001F04CFB80F3100983
:10FAE800184B194A2C0C9B1AB4EBD30F20D27B1C51
:10FAF80033400BEB8303E90044EA094401F0380181
:10FB08003E40DC6041F0C1019BF82034033641EAF5
:10FB180088214BF8261013B903B0BDE8F08FFFF722
:10FB2800D3FC0028F8D0FFF7CFFC0028F7D1F3E783
:10FB3800064940F2A31011F0E9F8D8E73946ABE7D7
:10FB4800402E0020ACCC0400C4CB0400C0CD04007F
:10FB5800242A00202DE9F04786B0DFF824A103937A
:10FB68000F9B0E9C0593054600230DF107001646D2
:10FB780002928DF80730DAF808700494894600F08C
:10FB8800ABFCDAE90132DAF8008013440133A3EB65
:10FB98000803052B69D80AF21C440121204601F00C
:10FBA8000BFBFFF7CFFB0146204601F005FBDAE926
:10FBB8000132DAF80010134401335B1A052BECD933
:10FBC8000A400332063140F205139DF807004AF84F
:10FBD8002230CAF8001000F0B5FC08F1020303A9AE
:10FBE80008F1060001E051F8046B07EA03020AEB8A
:10FBF800820201338342D660F5D11D48002101F00D
:10FC0800B9FA80F310061B4B1B4A2C0C9B1AB4EB59
:10FC1800D30F24D208F101033B40ED000AEB830324
:10FC280005F0380544EA064445F4807507EA0807F4
:10FC3800DC6045F001059AF82034033745EA892548
:10FC48004AF8275013B906B0BDE8F087FFF73CFC27
:10FC58000028F8D0FFF738FC0028F7D1F3E7074968
:10FC680040F2A31011F052F8D4E74146A8E700BFCC
:10FC7800402E0020ACCC0400C4CB0400C0CD04004E
:10FC8800242A00202DE9F04786B0DFF828A1029346
:10FC98000F9B0493109B0E9C0593054600230DF1C2
:10FCA8000300164601928DF80330DAF808700394C1
:10FCB800894600F011FCDAE90132DAF800801344D1
:10FCC8000133A3EB0803062B69D80AF21C4401216F
:10FCD800204601F071FAFFF735FB0146204601F096
:10FCE8006BFADAE90132DAF80010134401335B1ACF
:10FCF800062BECD90A400332073140F245139DF830
:10FD080003004AF82230CAF8001000F01BFC08F182
:10FD1800020302A908F1070001E051F8046B07EAA1
:10FD280003020AEB820201338342D660F5D11D48F3
:10FD3800002101F01FFA80F310061B4B1B4A2C0C04
:10FD48009B1AB4EBD30F24D208F101033B40ED001A
:10FD58000AEB830305F0380544EA064445F4A07528
:10FD680007EA0807DC6045F001059AF820340337F4
:10FD780045EA89254AF8275013B906B0BDE8F08747
:10FD8800FFF7A2FB0028F8D0FFF79EFB0028F7D169
:10FD9800F3E7074940F2A31010F0B8FFD4E7414653
:10FDA800A8E700BF402E0020ACCC0400C4CB040060
:10FDB800C0CD0400242A00202DE9F047DFF8E890A0
:10FDC80082B0002305460DF107008DF80730D9F8F9
:10FDD8000860884600F080FBD9E90132D9F8007044
:10FDE80013440133DB1B012B54D809F21C440121B5
:10FDF800204601F0E1F9FFF7A5FA0146204601F097
:10FE0800DBF9D9E90132D9F80010134401335B1A40
:10FE1800012BECD90A400332052302319DF8070073
:10FE280049F82230C9F8001000F08CFB1A4800216C
:10FE380001F0A0F980F3100A184B194A2C0C9B1AF0
:10FE4800B4EBD30F20D27B1C334009EB8303E900CA
:10FE580044EA0A4401F038013E40DC6041F0010107
:10FE680099F82034033641EA882149F8261013B955
:10FE780002B0BDE8F087FFF727FB0028F8D0FFF7AE
:10FE880023FB0028F7D1F3E7064940F2A31010F04E
:10FE98003DFFD8E73946BDE7402E0020ACCC040032
:10FEA800C4CB0400C0CD0400242A002030B4124D75
:10FEB800D5F8101404460020B1B10B4601E01B68C8
:10FEC80053B1DB681A798242F9D101300A28F3D19B
:10FED8004FF0FF3030BC7047E2681071CB6819688A
:10FEE80011601C6030BC7047E3681871C5F8104495
:10FEF80030BC1960704700BF242A002038B5094B70
:10FF0800D3F81044012583F820544CB12368E268E3
:10FF18005B68557120469847E3681C68002CF5D14A
:10FF280038BD00BF242A002030B5C38885B00446F8
:10FF38000D4623BB237A052B1FD0627A82B9144A57
:10FF4800A08852F8232003920021FFF783FA039A2E
:10FF580010490346284605B0BDE8304001F01EBAF6
:10FF68001946A088FFF79AFA0B4B0C4953F8202042
:10FF7800284601F013FA237AE1E705B030BD0849B5
:10FF88000091084A0849284601F008FAD2E700BF5C
:10FF98000CCF040074CE0400E8CE040070CE040038
:10FFA80068CE040048CE040050CE04002DE9F0438A
:10FFB80085B01D460C9C002394F80C902373804652
:10FFC8000E46174621462846FFF7AEFF062F09D8EA
:10FFD800DFE807F0042E343B444F1F00414620461B
:10FFE80001F0DCF92B7A052B05D06B7A5BB9274930
:08FFF800204601F0D3F9204678
:020000022000DC
:1000000001F0BCF984F80C9005B0BDE8F083224AF9
:100010002249204601F0C6F9EDE77369039333697D
:100020000293F3680193B3680093D6E90023414635
:10003000204601F0B7F9D9E732684146204601F081
:10004000B1F9D3E7D6E900234146204601F0AAF9E9
:10005000CCE7B3680093D6E900234146204601F07F
:10006000A1F9C3E7F3680193B3680093D6E90023CD
:100070004146204601F096F9B8E733690293F368E8
:100080000193B3680093D6E900234146204601F06E
:1000900089F9ABE780CE040068CE040070CE04007E
:1000A000082900D970472DE9F04F1D4683B0002480
:1000B0001B7B2C730E46074629461046904601933B
:1000C000DFF8BCB0DFF8BCA0FFF732FF05E03A5D17
:1000D000013401F067F9082C09D0A64251462846A0
:1000E000F5D85946013401F05DF9082CF5D12049C5
:1000F000DFF894B0DFF894A0284601F053F900240B
:1001000014E017F80490B9F17E0F4FF02E02484624
:1001100005D811F013F9002814BF4A462E22514683
:100120002846013401F03EF9082C08D0A642E8D850
:1001300059462846013401F035F9082CF6D198F8D3
:100140000830052B02D098F809305BB909492846D8
:1001500001F028F9284601F011F9019B2B7303B037
:10016000BDE8F08F044A0549284601F01BF9EDE788
:1001700090CE040080CE040068CE040070CE04004F
:100180008CCE040084CE04007CCE040094CE040007
:1001900000B583B04FF0010C8DF807C0144B9DF8EB
:1001A00007E0186044F2010C604559609A6013D072
:1001B00044F20201884206D1DA60DA6812889A6154
:1001C000DA685268DA6172B69DF80730002BFBD10D
:1001D00062B603B05DF804FB1A611A6992685A614D
:1001E0001A6912689A611A695268DA61EBE700BF0E
:1001F000E02E002000B583B002900091019244F2FD
:10020000010071466A4600F003F803B000BD00BF6C
:10021000F0B5044687B00E46154672B6FFF772FE7B
:10022000FFF756F90028FBD144F201039C422FD07E
:100230001DD8012C54D041F201039C4244D12E48D8
:100240002E4B2F49C01AC008000440F00100FFF7F0
:10025000B7FD2C4BD3F8F030DB0700D500BE2A46A3
:100260003146204607B0BDE8F040FFF791BF44F2A9
:1002700002039C4228D1214B1F486A682249C01AB8
:10028000C00800042B8840F00100FFF74FFBE0E7B7
:10029000AA681A4B184F05921046FF1A01F0E8FEA3
:1002A000029629680191FF083F046968009147F0B0
:1002B00001070346059A15493846FFF7E7FC14493C
:1002C0003846FFF77DFDC4E70C4B0B481149C01AB7
:1002D000C0080004324640F00100FFF7A5FAB8E775
:1002E000064B05480C49C01AC008000440F0010044
:1002F000FFF766FDADE700BF24CC0400C4CB0400CB
:100300004CCF040000ED00E070CF04008CCF04005F
:10031000B4CF0400C8CF04002CCF040070B505464C
:1003200008F0C2FD4368AB42044603D00B496A2083
:1003300010F0F0FCA3685BB1237B43B1637BA26840
:10034000206883F001032373BDE87040104770BD3F
:1003500002496B2010F0DEFCEEE700BFE0CF0400A6
:1003600010B5046882B00AB3237B0BB9636813B17C
:10037000082002B010BD00290CBF012000200D494B
:10038000E360A26023606360607314BF01220022F7
:10039000009123464FF47A71074808F0ADFB00281E
:1003A000606014BF00200E2002B010BD072002B014
:1003B00010BD00BF1D0302007CCE04002DE9F041FA
:1003C000476884B0002F52D0067B0446BEB90D4664
:1003D0000260EFF305836BB10A46009603AB092177
:1003E0003846039608F0AAFB012828D0042004B060
:1003F000BDE8F081384608F03FFD064618B1002000
:1004000004B0BDE8F0814FF002082A460346CDF85B
:1004100000800421384608F091FB01280546E5D10B
:1004200007F08EFCCDF80080024633462946384658
:1004300008F084FB0128D9D101232373DFE707F0FB
:1004400085FC0096024603AB0621384608F076FB91
:100450000128CBD1039B002BEED0074B4FF08052ED
:100460005A6040BFBFF34F8FBFF36F8FE4E70820A0
:1004700004B0BDE8F08100BF00ED00E010B5044617
:10048000406884B038B3EFF305835BB90222009271
:1004900003211A4608F052FB012819D100202073CD
:1004A00004B010BD0022009203AB0821039208F0B3
:1004B00045FB01280CD1039B002BEFD0074B4FF0DD
:1004C00080525A6040BFBFF34F8FBFF36F8FE5E795
:1004D000042004B010BD082004B010BD00ED00E001
:1004E00070B50446EFF30583C3F308033BB9EFF39C
:1004F0001483DB0703D51149432010F00BFCEFF305
:10050000108072B60E4B9A68A2B9012199600D490C
:100510000D4ED1F8805035401D60C1F88060D1F893
:1005200084505D604FF0FF33C1F88430227000B911
:1005300062B670BD01232370F9E700BF44D0040008
:10054000002F002000E100E0FC06FFBD10B50446CE
:10055000EFF30583C3F308033BB9EFF31483DB0721
:1005600003D50A49512010F0D5FB094B9A685AB1BE
:1005700054B9EFF3108172B6064A186810605868D3
:1005800050609C6001B962B610BD00BF44D0040049
:10059000002F002000E100E0194B00EB800003EB8E
:1005A00080000B68426802F580502BB35A880332F2
:1005B00003EB8203834217D210B54FF6FF7E1A6811
:1005C000013213D05A88033203EB820290420DD3DA
:1005D000B3F804C0F4450BD01C884CB19C680134BE
:1005E00006D00B60012010BD00207047002010BD18
:1005F0009042FBD91346E2E702F10803DAE700BFB5
:10060000482F002070B5436882B006460C461BB1E7
:10061000234AD1688B421FD20022134622801546FE
:10062000019505E0019B3268996891420ED02388BC
:10063000184601A9FFF7B0FF0028F3D12388013342
:100640009BB2012B2380EBD902B070BD154A7360B9
:100650001389338102B070BD12699342DCD813F064
:100660000300D9D10F4A318912899142D4D131681E
:100670009A689142D0D10C494A68934203D902F555
:100680008052934209D38A69934203D902F580527A
:10069000934201D30020D7E7012020800120D3E737
:1006A0000C260020302F0020482F002010B4104CC2
:1006B000104A638803EB830302EB8302D36853B9C8
:1006C0004FF0040C516884F800C00B485DF8044BEF
:1006D000012201F025BA094A0520022120709180EB
:1006E000054811685DF8044B0023012201F018BA97
:1006F000302F0020482F00200C260020842F0020BF
:10070000B3F804C0BCF1010F39D82DE9F0411D4FF9
:100710001C4680460D4616460CEB8C0317F823301A
:100720006BB10CF1010C1FFA8CFCBCF1010FA4F8A9
:1007300004C0F1D948F209601BE0B4F804C0604677
:100740002146FFF729FFB0B12368B8F1000F04D0AC
:100750009988B8F800209142EFD11DB119882A88F4
:100760009142EAD19968084A12893281C6E9001398
:100770000020BDE8F081B4F804C02060D1E748F261
:1007800009607047482F0020302F002030B5104CF2
:1007900083B06088211DFFF7FFFE20B903B0BDE8DC
:1007A0003040FFF783BF0B4B626899881B680A488B
:1007B00003EB81015388033300259BB24FF0030CF8
:1007C0009B00009584F800C001F010F903B030BD23
:1007D000302F0020842F00200C2600202DE9F04F20
:1007E0009D4DDFF894922C68DFF89082DFF890B28C
:1007F0008BB00746002C00F0908023785A1E052A03
:1008000000F28483DFE802F041242403034E002F2A
:1008100040F0F28094F804A0BAF1010F00F0708269
:10082000BAF1020F00F06682BAF1000F00F04F82B9
:10083000CDE907770597099705AE48F20E67023BA9
:100840000697042B4AD8DFE803F098847843AD007C
:10085000B4F814A0002F40F0B780804EA17D0AEBC1
:100860008A0206EB82024FEA8A071089526802EB7D
:100870008002062900F24583DFE811F09401BD01F2
:10088000AA01CE01820169014401002F40F00982D2
:100890002279032A00F2C780DFE812F02801130151
:1008A000B700F400002F40F009826D4C237B002B31
:1008B00000F0C48023782773013B062B69D8DFE85A
:1008C00013F06402ED01D201CF0168005302BC01B4
:1008D00004238DF81430E388ADF82030614C04F126
:1008E000100754F8043B304603B19847A742F8D1AB
:1008F0000023494640462B6000F00EFC5A4B1B6813
:10090000002B53D05848012100F066FC002858D035
:100910002C680027002C7FF470AF4946404600F059
:10092000C9FB0446286000287FF467AF594640F2AF
:100930009B5010F0EFF92C685FE703238DF814301B
:10094000E1882289E3680793ADF82010ADF82220F2
:10095000C4E702238DF81430A37D2289A188ADF865
:100960002020A3F10603B3FA83F3E26807925B0940
:10097000ADF822108DF82430B0E701238DF8143043
:100980002189A288E3680793ADF82010ADF82220F2
:10099000A4E7002305AE0593C6E90233336148F2AC
:1009A0000E67069705238DF8143097E759464FF4E4
:1009B000247010F0AFF92C48012100F00DFC002844
:1009C000A6D10BB0BDE8F08FA17DE288234E0229AD
:1009D00007D90AEB8A0006EB8000D11C078939444D
:1009E00001814FEA8A07574406EB8706C2F57F422A
:1009F0007189FD320A44728105AE002205924FF4DE
:100A00000647C6E90222326119E7184A18481168F8
:100A10000023237102249480012201F081F8002830
:100A2000CFD02C682378134905AE002205924A6086
:100A3000C6E90222326148F20D6700E72378072BEE
:100A400000F2D881DFE813F0EC01D601D6012101D4
:100A5000C001F900F900D201442F0020482F0020E6
:100A6000302F0020182F0020802F0020842F0020FE
:100A70000C260020282F0020402F0020702F00205F
:100A8000A4D00400AD4FAE4AAE484FF0000A84F83F
:100A900004A0CDF800A00823396800F0A7FFAA4BF6
:100AA0005E8806EB8603A94E06F823A006EB8306B4
:100AB0003B6872687360BB88338102233A60BB80F5
:100AC000ADE7A24E3378022B00F00982337D022B72
:100AD00000F015829E4A002305AE01210593117096
:100AE000C6E90133C6E903335360F7E6934B994AED
:100AF000196894480123237100230093082300F010
:100B000075FF8CE7E288214641F61D5007EB0A0C81
:100B100006EB8C0CD41CBCF808E07444ACF808401C
:100B2000574406EB8706C2F57F420C467189FD32B9
:100B30000A44728105AE41F61D5200279042C6E973
:100B40000077C6E9027737613FF479AEB5E1824BB1
:100B5000824A5968824B7B481B8803930623A375FE
:100B600000230093042300F041FF40BB039B03EBF1
:100B7000830306EB8306012333740BB0BDE8F08FCB
:100B80007548A36903607649039200234360FFF729
:100B900039FD039A0023002800F0978111460222B4
:100BA000A27503E00223A3751146002300930423DA
:100BB0006448E21800F01AFF00283FF402AFA07D5D
:100BC0002968E2880B78022848F20D60A8D99DE7D1
:100BD00023695C48002B14BF03230123A375002362
:100BE00002F10801009304F10C02042300F0FEFE60
:100BF0000028E4D1E5E6032B0CBF05230623A375EB
:100C00000023111D00934F48042304F1080200F053
:100C1000EDFE0028D3D1D4E6E3880120A0750020A2
:100C200002F10C019B0022690090464800F0DEFEB4
:100C30000028C4D10BB0BDE8F08F404B454A19687D
:100C4000404800230093636007232370082300F0CB
:100C5000CDFE00283FF4B5AE2C6805AE23786AE7D8
:100C6000FFF724FDF5E762683448538886880168F9
:100C7000033301EB8601002003269BB200909B000A
:100C80002670304800F0B2FEE3E72C4A63685988CA
:100C9000938803330B44938002232370FFF776FD80
:100CA000D7E72B4A002151604FF4064705AE0022DA
:100CB000C6E90022C6E902223261C0E505AE002382
:100CC00005934FF40647C6E90233336169E6022310
:100CD00005AE23710DF11201E36805933046CDE9AD
:100CE0000677FFF78FFC002840F0AE80237848F2AB
:100CF0000967DCE7CDE907770597099705AE9EE51B
:100D0000134B1B78A01D002B00F0CC8005AE154BBB
:100D100032463946FFF7F4FC124B002800F0B18050
:100D2000C3E9007748F20963984297D1C6E9007792
:100D3000C6E902773761237881E500BF842F002060
:100D4000FCD004000C260020302F0020482F00206B
:100D5000282F002004D104000C2F0020F8D004001C
:100D60008C2F0020902F002062886D4E930013443A
:100D700006EB830600237168009306232370694AFB
:100D80006948082300F032FE63E7A37A3BB1644E62
:100D90000023A372F36813B9327C002A6DD1E37A81
:100DA00043B15F4E0023E372336A1BB996F82430D7
:100DB000002B61D105AE002305932370C6E90233F1
:100DC000638063603361ECE56288554E574902EBFE
:100DD000820306EB83030F685868086088885F60A9
:100DE000188102238B8002FA03F3C0E701232370EA
:100DF000A37ACBE7013B062B3FF6CBAD01A252F81D
:100E000023F000BF8B0D02009D0C0200670C020056
:100E1000610C020093090200690D02003B0C020004
:100E20003F4E2389327D01332381B2FA82F2337837
:100E30005209B3FA83F3E27200225B0962802273E3
:100E40000122A3722270A1E70699394A8B88E380B8
:100E50000B882381344800970423BDF8124000F02A
:100E6000C5FD68BB2E4B04EB840403EB8404012313
:100E700023740BB0BDE8F08F01236380FFF786FC7D
:100E8000E7E600979C882A4A06992748042300F041
:100E9000ADFDA8B9224B04EB840403EB840484F871
:100EA00010A08EE5234B0997CDE90577CDE90777AB
:100EB000C3E9007705AE48F2016023780746BEE437
:100EC0002C6848F20D672378F1E6CDE90500CDE9FD
:100ED00007000990237805AE48F20967AFE40023C4
:100EE00003EB830306EB83020F485168002206F8E8
:100EF0002320009208230B4A00F078FD8FE50123A0
:100F0000EEE7E288214648F20E60FFE505AE0023D9
:100F10000593C6E90233336148F20E630693DDE4BC
:100F2000482F0020FCD004000C260020842F002035
:100F3000F8D00400902F00204068FFF74FBC00BF9E
:100F40001EF0040F1CBFEFF309800AE0EFF30880E6
:100F50000549064A884201D8904202D88D464FF092
:100F60000000034B184700000000022000F8012099
:100F7000990F0200BFF34F8F0549064BCA6802F470
:100F8000E0621343CB60BFF34F8F00BFFDE700BFAC
:100F900000ED00E00400FA052DE9F04782B080463C
:100FA000FEF7B0FFFEF794FA0028FBD1354B364F21
:100FB0009D6A364BB8F1000F5AD0FF1AFF083F0464
:100FC00047F00107D8F8182031493846FEF72CFCC5
:100FD000D8E90232CDE900322E49D8E9002338465B
:100FE000FEF7BCFDD8F81C20D8F814300092D8F8D1
:100FF000102029493846FEF723FD224BDB6A98076B
:1010000023D4DFF8A8A0DFF8A8900024012606FA70
:1010100004F32B4206D05AF82420494638460AB138
:10102000FEF702FC01341A2CF1D1290619D42A0446
:1010300010D4144BD3F8F030DB0700D500BE404687
:10104000FFF798FF02B0BDE8F08714493846FEF775
:10105000B7FED6E70B4B12499A6B3846FEF7E4FB16
:10106000E7E7084B0F495A6B3846FEF7DDFBDEE732
:10107000FF1AFF083F0447F001070B493846FEF707
:101080009FFEBAE700ED00E064CC0400C4CB04008E
:101090000CD1040024D104005CD10400B8D10400B8
:1010A00028D2040008D2040084D1040024D704000C
:1010B000FCD1040010B483B050E8023F1FFAA3FC37
:1010C000C488A44502BFBFF32F8F00220EE0C4895D
:1010D000A4448489A44528BFACEB040CC3EA0C4C9F
:1010E00040E802C4002CE7D14FF001028DF8032044
:1010F0000193019C9DF803200C6032B1006800EB65
:10110000144003B05DF8044B704702F0FF0318462B
:1011100003B05DF8044B70470A884B889A4201D0AF
:101120000020704750E8022FC2EA224240E8022322
:10113000002BF7D1012070474B0901F01F024FF03F
:10114000010C0CFA02F100EB830000F021B800BFA3
:1011500001F01F02012303FA02F24B0900EB8300A6
:10116000D14300F021B800BF4B0901F01F0150F836
:101170002300C84000F00100704700BF034653E859
:10118000000F0A4643E8002C9CF0000FF7D170478F
:10119000034653E8002F42EA010043E8000C9CF0AC
:1011A000000FF6D1704700BF034653E8002F02EA54
:1011B000010043E8000C9CF0000FF6D1704700BF1F
:1011C000034653E8002F02EB010043E8000C9CF0BB
:1011D000000FF6D1704700BF034653E8002FA2EB83
:1011E000010043E8000C9CF0000FF6D1704700BFEF
:1011F0000346012253E8001F41EA020043E8000CC5
:101200009CF0000FF6D170470346002253E8000F10
:1012100000EA020143E8001C9CF0000FF6D1704781
:10122000002844D038B5036804465BB36368002BDC
:101230002FD0A368002B34D0E368EBB1238AABB185
:10124000D4E90120801A2168C0B2431E0A60DBB2D3
:1012500008B908E00A68551C581E0D601370C3B227
:10126000FF2B2168F6D10020087138BD114940F2EA
:1012700003100FF04FFDE3E70E494FF481700FF0BC
:1012800049FDDBE70B49FF200FF044FD6368002BAD
:10129000CFD108494FF480700FF03CFDA368002BBC
:1012A000CAD1044940F201100FF034FDC4E70E200A
:1012B000704700BF8CD7040030B5044683B040B3FC
:1012C00000250DF107008DF80750FFF709F9D4E963
:1012D00000231168994206D89DF80700FFF736F9F8
:1012E000284603B030BD481EA368106011F801CC39
:1012F0001179E5681B1ADBB2208A994200FB0C5574
:10130000EAD29DF807001371FFF720F9284603B0D1
:1013100030BD03494FF492700FF0FCFCD0E700BFE2
:101320008CD7040030B50C4683B00546B8B1ECB19B
:101330000DF1070000238DF80730FFF7D1F82A6878
:101340001368591C1160E9682A8A641AB4FBF2F424
:101350001C709DF80700FFF7F9F803B030BD06498F
:1013600040F247100FF0D6FC002CE1D102494FF4B7
:10137000A4700FF0CFFCDBE78CD7040010B5044657
:1013800040B1A2682AB163692168206998470023A7
:10139000A36010BD024931200FF0BCFCF1E700BF93
:1013A000E8D704000EB430B582B00446059DE0B124
:1013B00063690BB323689BB1636863B135B106AB56
:1013C00001AA29462046019300F0AAF802B0BDE820
:1013D000304003B070470B4945200FF09BFCEDE710
:1013E000084944200FF096FCE6E7064942200FF03A
:1013F00091FC6369002BDDD1024943200FF08AFC88
:10140000D8E700BFE8D704002DE9F84F1646B142EF
:10141000DDF828B00B9A884605461F467BD30B465D
:101420004FF00109B3FBF6F39E4209F10109F9D926
:10143000B94538BFB94612F0010A02D1BBF1000F1D
:1014400047D1A968012402E0013F06FB04F4012F03
:10145000FAD8B8FBF4F29642F7D9304F07E0B4421D
:10146000B4FBF6F315D3B8FBF3F2A9681C464B1C8A
:10147000AB602B68B85C585404FB1288D5E9013284
:101480009A42ECD32846FFF779FFB4FBF6F3B44257
:10149000E9D2BAF1000F13D0BBF1000F10D0202415
:1014A000D9450BF1FF3B0BD2AB682A68591CA960E8
:1014B000D454D5E901329A4204D2BBF1000FEFD1E6
:1014C000BDE8F88F2846FFF759FFBBF1000FE7D1C1
:1014D000F6E793071AD42024A968D94501F101023F
:1014E000B0D22B68AA605C54D5E9013199420BF166
:1014F000FF3B03D2BBF1000FEFD1A3E72846FFF774
:101500003DFFA968BBF1000FE7D19BE7002F0CBF9F
:1015100030242024E0E74FF0010989E794D8040043
:101520002DE9F04F0C4685B090460646002800F0A5
:10153000E7817369002B00F0EC813368002B00F029
:10154000F1817368002B00F0B580002C7DD02378EA
:10155000DFF844944FF0300B0BE0B2683168501C58
:10156000B0608B54D6E901329A427FD22378002BA7
:1015700067D00134002B64D0252BEED12146002703
:101580000A782D2A0C4601F1010169D0302A6AD06F
:101590002B2A5DD02A2A18BF002504D16AE014F84E
:1015A000012FA3F13005A2F1300105EB85030929D4
:1015B00002EB4303F3D92E2A66D0002301E014F88E
:1015C000012F02F0FB016829F9D0252A00F02581BE
:1015D000583AD1B2202930D8202A2ED8DFE812F08C
:1015E00021002D002D002D002D002D002D002D009F
:1015F0002D002D002D00020170002D002D002D006A
:101600002D0070002D002D002D002D002D002D002F
:10161000DF002D002D00B6002D00B2002D002D00A2
:101620002100D8F80000102201680430CDE90057ED
:10163000C8F800003046FFF7E7FE01342378002B9E
:1016400097D1337B002B40F0E28005B0BDE8F08FEE
:101650000A782D2A0C4647F0040701F1010195D1C3
:1016600047F001078CE747F0020789E73046FFF7AC
:1016700085FE7BE7D8F800301A1DC8F80020627894
:101680001D682E2A0C4698D16278A2F13003092BEE
:1016900004F101044FF0000393D803EB830302EB42
:1016A000430314F8012FA2F130010929A3F13003FB
:1016B000F3D986E7B74940F256200FF02BFB44E7F9
:1016C000D8F80020D2F800A00432C8F800208AEA36
:1016D000EA72A2EBEA72092A4FF0010008DD114616
:1016E0006329A9FB02C200F101004FEAD202F6DC35
:1016F0009842024638BF1A460292002D00F0CF8071
:10170000BAF1000FC0F2E2807A0700F1DF80B8077B
:1017100040F1DE80002B40F0DB80BAF1000FC0F218
:101720003D817A0700F14D8107F00302022A00F0A3
:10173000FF80CDE9005751460A223046FFF764FE8C
:1017400001347BE7D8F800000A226DE7D8F80030B2
:101750001A1DC8F8002017F00107D3F800A067D1C0
:10176000BAF1000F03D050460FF027FF0746BD42E5
:1017700040F2F980202102E0BD4200F0F480B2681E
:101780003368501CB0609954D6E901329A4205F191
:10179000FF35F1D33046FFF7F1FD2021ECE7D8F813
:1017A0000020B3683068111DC8F8001011685A1C79
:1017B000B26000F803B0D6E9012393427FD2581CEF
:1017C0003268B0607820D054D6E901329A4270D2A3
:1017D00008230022CDE9003230461022FFF714FE24
:1017E00001342BE7D8F80030B26818783168043338
:1017F000C8F80030531CB3608854D6E901329A42CD
:10180000FFF41BAF3046FFF7B9FD013416E7304651
:1018100005B0BDE8F04FFFF7B1BDB3683168581CA3
:10182000B060CA54D6E901329A42EBD2013405E7DE
:101830009AF80020002A00F0D6805746CAF101012C
:1018400002E017F8012F9AB1B068431CB360336807
:101850001A54D6E901329A4201EB070AF1D3304615
:101860000291FFF78BFD17F8012F0299002AEBD1A7
:1018700055457FF6E2AE202702E055453FF4DDAE48
:10188000B2683368511CB1609F54D6E901329A4264
:1018900005F1FF35F1D33046FFF770FDEDE7B807EE
:1018A00005D5002B3FF439AFF9073FF536AF0025DA
:1018B00033E730460291FFF761FD029988E7304631
:1018C0000291FFF75BFDB368029978E7013D1EE7DF
:1018D000F9073FF522AF002DE9D020220299A94255
:1018E000BFF41BAFB168481CB06030684254D6E901
:1018F0000101814205F1FF3569D2002DEED1D6E715
:10190000244940F252200FF005FA7369002B7FF44E
:1019100014AE20494FF415700FF0FCF93368002B1A
:101920007FF40FAE1B4940F255200FF0F3F908E6A3
:10193000002B7FF4FEAE002D53D0029AAA42BFF4D2
:10194000F8AEB1683268481CB06002F801B0D6E960
:101950000121914205F1FF35EDD330460393FFF7A6
:101960000DFD039BE7E79AF800302BB965E61AF8FE
:10197000013F002B3FF461AEB2683168501CB0608B
:101980008B54D6E901329A42F1D33046FFF7F6FC88
:10199000EDE700BF3CD80400CDCCCCCCB1683268B8
:1019A000481CB060CAF1000A2D205054D6E901212C
:1019B0009142FFF4B9AE30460393FFF7DFFC039B7F
:1019C000B2E6B1683268481CB0602B20EDE73046C3
:1019D0000393FFF7D3FC039B2022002D7FF47EAFFF
:1019E00065E70025A5E6924642E700BF2DE9F047EE
:1019F00082B0DDF828A000285ED01546002A64D009
:101A00000668002E6AD01C46002B31D04768D7F8F4
:101A10000490B3FBF9F809FB1838B8F1000F30D186
:101A200011F0030F36D1AD073DD1C568A94211D2DF
:101A30002F4B3048304AC01A1024C0082F4BA0400A
:101A40002F49009440F00100FDF7FAFF204602B054
:101A5000BDE8F087056901F1FF3E7444AC42E7D868
:101A6000CDF828A0F468A44602B0BDE8F04760476E
:101A70001F4B2048234AC01AC008204B09240004E9
:101A8000DEE71B4B1B48204AC01AC0081B4B092429
:101A90000004D5E7164B17481C4AC01A1024C0088A
:101AA000164BA040CCE7124B1248194AC01A10241A
:101AB000C008124BA040C3E70D4B0E48154AC01A90
:101AC000C0080E4B0E240004BAE7094B0948124A1D
:101AD000C01AC008094B0E240004B1E7044B0548A6
:101AE0000E4AC01AC008054B08240004A8E700BF2E
:101AF000C4CB040074CC0400A8D904006CDA040040
:101B0000ACD80400F4D8040040D904006CD9040017
:101B100084D90400A4D8040038D90400E0D8040013
:101B2000F0B583B000283AD00668002E40D022B32A
:101B3000446827687C1E0C4228D1C468A14210D298
:101B4000204B2148214AC01A1024C008204BA04035
:101B50002049009440F00100FDF772FF204603B0D9
:101B6000F0BD4C1E07FB024E0469A645E8D8346957
:101B7000A44603B0BDE8F0406047124B1248164A35
:101B8000C01AC008124B09240004E1E70D4B0E48AF
:101B9000124AC01A1024C0080D4BA040D8E7094BC8
:101BA00009480F4AC01AC008094B0E240004CFE7A9
:101BB000044B05480B4AC01AC008054B0824000412
:101BC000C6E700BFC4CB040074CC0400F8D90400FD
:101BD00058DA0400ACD80400F4D80400D0D90400CA
:101BE000A4D80400E0D8040029DF704728DF70473C
:101BF00003689A6852B310B586B00023CDE902336A
:101C00000093049303798468059401918BB1012BAF
:101C100003D06846904706B010BDC368416904917F
:101C20001B0302208DF8000002936846904706B01F
:101C300010BDD0E903144369049301208DF800001E
:101C4000CDE902416846904706B010BD704700BF1D
:101C5000034B187A0122B0FA80F05A744009704799
:101C6000A82F002038B5254D2B7AFBB1244B1C68DA
:101C700002232B72237923B3012B0CD0204603219E
:101C8000FFF7B6FF00232B726B601E491E48BDE8AC
:101C90003840FFF741BAD4E903031844FFF7A6FF21
:101CA00018B31128EAD101232B7238BD1549164803
:101CB000FFF700FA124B044618600028D8D168607C
:101CC00038BDD4E90523D21AB2F5805F28BF4FF49E
:101CD00080529208E1682069012A38BF0122194424
:101CE0001844FFF781FF0028DBD12B7C002BDCD1CF
:101CF000BDE83840022000F009B800BFA82F00203E
:101D0000C02F0020BC2F0020982F002010B5254C9C
:101D1000237A93B1022B06D103280FD1E368013354
:101D2000082B2AD8E360637C1BB9BDE81040FFF79D
:101D300099BFBDE810400CF06DBA10BD1A4B0022DF
:101D40001B68E2601A79FAB1012AECD1D3E90421C7
:101D500001328A421A61E6D10022022822720CBFA7
:101D600011460D211846FFF743FF10491048FFF7B1
:101D7000D3F9637C002BDCD1D7E70B4B00221B6827
:101D8000E26022720D21EDE7D3E90512A1EB020C0E
:101D9000BCF5805F94BF624402F5805291429A6123
:101DA000C1D1D9E7A82F0020C02F0020BC2F0020D0
:101DB000982F0020831E012B01D8FFF7A7BF704783
:101DC00000F0FD03012B00D07047A0F10100044B8F
:101DD000B0FA80F0002240095A741874FFF742BF2D
:101DE000A82F00202DE9F84F88469DF828909346AB
:101DF0009A460446002847D0E788657907FB05F531
:101E0000043D55453AD9DBF8006006EB0A020AF1B9
:101E10000403AA4288BFA5EB0A06BB42B3FBF7F155
:101E2000CBF8006007FB113C02D301392468FCD1D8
:101E3000A7EB0C05B54228BF3546EEB14FF0000ABE
:101E40000CE018460FF036FB761BB742AA44246814
:101E50003D464FF0000C28BF35466EB10CF1040032
:101E600020442A46014608EB0A03B9F1000FE8D1E5
:101E700019460FF01FFBE7E7BDE8F88F0549C420BE
:101E80000EF048FFE788BEE70249B6200EF042FF99
:101E9000B2E700BF80DA0400FFF7C2B92DE9F041D4
:101EA000058A0331043D4E198046B6FBF5F6FFF76F
:101EB00003FAA0B3F6B24FF48073013E0446838068
:101EC000C580C0F800802BD00346002508E0627969
:101ED000AE4202F1010262713860C0F800801FD08A
:101EE00040461F46FFF7E8F9013503460028EED1CA
:101EF0006779791E17D02246013399421268FBD1C7
:101F0000D2F800805FB12668002501E034463668CB
:101F1000214640460135FFF705FAAF42F6D80024C6
:101F20002046BDE8F08120682146FFF7FBF9F6E77F
:101F300001210430FFF744B92DE9F04101210446A5
:101F40000430FFF749F910F0FF0301D0BDE8F0813C
:101F50006779791E16D02246013399421268FBD167
:101F6000D2F80080002FF1D02668002501E0344629
:101F70003668214640460135FFF7D4F9AF42F6D81E
:101F8000BDE8F08120682146BDE8F041FFF7CAB9FD
:101F900030B585B000251446009503AA0394FFF7D9
:101FA00021FF039BA34203D00249F6200EF0B2FEAC
:101FB00005B030BD80DA040030B585B00125144687
:101FC000009503AA0394FFF70DFF039BA34204D0DF
:101FD00003494FF480700EF09DFE05B030BD00BF88
:101FE00080DA0400836800225A60C3E904229A6000
:101FF000DA601A60704700BF38B50C46054648B134
:1020000074B1D4E900329342C5E9004304BF002310
:102010006B6038BD054950200EF07CFE002CF0D1DD
:10202000024951200EF076FEEBE700BFDCDA040037
:1020300010B5044668B1236893B1636843B1226860
:10204000D2E901210B449342636004BF0023636023
:1020500010BD064963200EF05DFE2368002BECD115
:10206000024964200EF056FEE7E700BFDCDA040008
:102070001049A1F5947205E052F83330984238BF08
:1020800061460CD2A1EB020C4FEADC7303EBEC03CC
:102090005B10914202EBC30CEED80748704702D99F
:1020A0000CF10802EEE7DCF80400034B002808BF3F
:1020B0001846704778E004003CDF04002DE9F04F3B
:1020C000ADF62C0D00200222012113460A91CDF815
:1020D0002C040AAC02460AE013F080020DF5856379
:1020E00044F8041F43F8210018BF1B224B00534043
:1020F00001304B40B0F5807FD9B2EDD17D4A01234C
:1021000002F1280042F8043B59001B0648BF81F049
:102110001B019042CBB2F5D1774B784D05936322EA
:102120001A70002285F863200DF585641846012198
:1021300054F8043F0AAAC3F1FF0352F823E04FEA20
:10214000EE1242EA4E025FFA82FCC2F3C01242EA89
:102150004C02D7B2C2F3C01242EA4702D6B2C2F36F
:10216000C01242EA4602D3B283EA0E0383EA0C03AA
:102170007B40734083F0630300F8013FE954013171
:10218000B1F5807FD4D1DDF860340693DDF84C34AE
:102190000793DDF85C340893DDF854340993584B09
:1021A00003930022574B584E02936321574B0193E0
:1021B000C6209246564CDFF86891DFF86881DFF858
:1021C00068E1544F544D049602468C4608465346E7
:1021D00066E00DF58563089A53F82130099E98183A
:1021E000079A991885FB002B83444FEAE07CCCEBDF
:1021F000EB1CCCEB0C2CA0EB0C0C0AA8069A50F8AC
:102200002C001A44334485FB016A8A444FEA004C8F
:10221000C817C0EBEA10C0EB0020081A0AA951F851
:1022200020108CEA012C85FB02101044D117C1EB61
:10223000E011C1EB0121511A0AAA52F821208CEABF
:10224000020C85FB03211944DA17C2EBE112C2EB41
:1022500002229A1A0AAB53F822308CEA03634FEA3F
:1022600033604FEA33414FEA3322019E4EF8040FA8
:1022700046F8043F049B47F8041F43F8042F0493D7
:10228000264B0196A34230D0059B13F8010F05930E
:1022900010F0800F84464FEA400214BF1B23002336
:1022A0005A400104D2B241EA0021514082EA0C0CAA
:1022B00041EA0C63029A039E12F8011F44F8043F9E
:1022C0004FEA336046F8040F4FEA33404FEA3323B6
:1022D000029249F8040F48F8043F0A460396002981
:1022E0007FF477AF08460B46BFE70DF62C0DBDE82F
:1022F000F08F00BFC4400020C42F0020EC4000201D
:10230000C0340020EB400020E84D0020E8410020D0
:10231000C0300020E849002081808080C034002047
:10232000C0380020C03C0020E84500204FF48C72EB
:1023300000210FF0E8B800BF38B100F58C71002221
:102340000346013081421A70FAD170472DE9F041FD
:10235000784D2B6880460F46144653B1C02C0ED0E2
:10236000B4F5807F3AD0802C0DD06FF01F00BDE80F
:10237000F081FFF7A3FE0123C02C2B60F0D10C23CA
:10238000C8F8003002E00A23C8F80030464608F1D9
:10239000080346F8043F6409394600228B784D78DB
:1023A00091F800E091F803C01B0443EA052343EAD7
:1023B0000E03013243EA0C63A24246F8043F01F1E6
:1023C0000401EBD3D8F800300C2B0BD00E2B38D0F7
:1023D0000A2B00F084800020BDE8F0810E23C8F8AD
:1023E0000030D3E7544D554A404605F12006C169F7
:1023F00055F8047F8468C1F307237C40D35C0F0E3B
:102400006340D45DCFB283EA0443C1F30744D75D90
:10241000145D83EA076383EA0423D0E903475C4041
:102420006740C0E90834D0E905437C406340594027
:10243000AE42C0E90A74C0E90C3100F11800D6D1EF
:10244000C9E73D4C3D4A404604F11C0C416A54F832
:10245000046F8568C1F307237540D35C6B400D0E94
:10246000A445555D83EA0543CDB2555D83EA056316
:10247000C1F30745555D83EA0523C568836283EA96
:1024800005030569C36283EA05034569036383EABB
:102490000503DDB2436312F805E04FEA1365565DAC
:1024A00085698EEA050EC3F30725C3F30743555D1F
:1024B000D35C8EEA066E8EEA052EC5698EEA03436A
:1024C000836383EA0503056AC36383EA050381EA3C
:1024D0000301C0E9103100F12000B7D17BE7184EAD
:1024E000164A404606F1280C416956F8044B8568A7
:1024F000C1F307230F0ED35C12F807E06C40634072
:10250000CCB2C1F30745145D575D83EA0E4383EAFD
:102510000463D0E9035483EA07235D406C406140C3
:10252000B445C0E90635C0E9084100F11000DBD12F
:1025300051E700BFEC510020C0400020C42F002014
:10254000C44000202DE9F04FCBB0044616460D469E
:102550004FF48C72002104A80EF0D5FF04F108039B
:1025600063603246294604A8FFF7F0FE0190002878
:1025700065D10499059B21600A0103EB011B9A5860
:10258000A260DBF80430E360DBF808302361DBF89D
:102590000C3063614A1E04F11803002A0291039271
:1025A000ABF1100B009391463CDDDFF8BC802A4A6A
:1025B0002A4F2B4E2B4D2834DA46A4F11000AAF1F5
:1025C000040C5CF8043FD9B2515C58F821E0190EB4
:1025D000515C57F821108EEA0101C3F3072EC3F3B3
:1025E000074312F80EE0D35C56F82EE055F823307E
:1025F00081EA0E014B4040F8043BA042E1D1B9F121
:102600000109AAF1100A00F11004D6D1009B039A27
:1026100003EB02130093029BC3EB03730BEB031B4F
:102620000BF1100B009ADBF800301360DBF804307C
:102630005360DBF808309360DBF80C30D36004ABF8
:1026400000211A46013311704AAA9342F9D1019828
:102650004BB0BDE8F08F00BFC42F0020EC4D002030
:10266000EC450020EC490020EC4100202DE9F04F22
:10267000D0E90003D1F800A01C684F688D68CE68CF
:10268000401089B00138CDE906208AEA04020092A0
:102690005A68039057409A685540DA68002886EADD
:1026A000020603F11002059240F3BC81DFF88C832F
:1026B000DFF88C93DFF88CB3DFF88CA3CDE90189C8
:1026C00003F1300E009AD3B2310E5BF823C05AF8F2
:1026D0002180FBB2110E5EF8202C5BF823005AF823
:1026E0002140EBB28CEA020C5EF81C2C5BF8233024
:1026F0000493390E50406040049A5EF8184C5AF822
:102700002190F3B26240290E5BF823305AF8211071
:1027100082EA09095EF8142C53408CEA080C019AED
:1027200083EA0108C7F30723C7F3074752F82310CA
:10273000C5F307238CEA010C52F823400299C5F334
:10274000074551F82770C6F307234440084651F85F
:1027500025108CEA010C114652F82320009B89EACF
:102760000209C3F30722054651F82220C3F30743A9
:1027700088EA020855F823205FFA8CF388EA0708F4
:10278000C6F3074689EA02095BF8232050F82600C1
:102790004FEA186344405AF823305A40C4F30723E1
:1027A0000EF1200E51F823300093C9F3074355F87A
:1027B0002300E3B25BF823604FEA1C635AF823302E
:1027C0005E40C9F3072351F82370C8F3074355F857
:1027D00023105FFA89F34FEA19695BF82350230E3F
:1027E000C4F307445AF823305D405FFA88F304933A
:1027F0005EF8303C5340009A534083EA00025EF892
:102800002C3C009273405F405EF8283C5AF82960E7
:102810005D40C8F30728049B4F4001995BF82320D3
:1028200051F8283072405D40029ECCF30723CCF370
:10283000074C56F8240051F8234056F82C305D40E0
:102840005EF8243C82EA0306039B6640013B86EA6D
:10285000000603937FF436AF059B079ADDF80890D6
:1028600003EB421388460593009CE3B25BF82320F8
:10287000330E5AF823305A40FBB25BF82310230E74
:102880005AF823305940EBB25BF823003B0E5AF85C
:10289000233080EA030CF3B25BF823002B0E5AF8C6
:1028A0002330584000900598C7F30723006858F874
:1028B00023E0424082EA0E0E059AC5F30723C7F3D0
:1028C0000747506859F827B058F823704140C6F3BD
:1028D0000723C5F307454F40916859F825A058F8DC
:1028E00023500098C4F307238CEA010C1146D268E8
:1028F00058F8233042408EEA0A085340C6F3074690
:102900004D4A59F8266083EA0B0B5FFA88F3C4F34B
:10291000074412F803E059F824404FEA1B637E4055
:10292000D05C8CEA0505C6F3072385EA040912F892
:1029300003A0C9F30743D75CF3B2D35C00934FEA1B
:10294000186312F803C0C9F30723D45C0194CBF3D6
:102950000743D55C02955FFA89F3350ED45C5FFAC4
:102960008BF303930B698EEA030383EA006383EA24
:102970000A2383EA074708464B6900994B4083EADC
:102980000C6C019B8CEA032C029B01468CEA034CE5
:1029900083690398C969105C4FEA19696340545D03
:1029A000CBF3072B484012F8091083EA0463C8F3FD
:1029B0000724C8F3074880EA0160C6F3074612F807
:1029C0000B10155D12F8084083EA0121935D81EA3E
:1029D000044180EA0522069C82EA03423B0A6370B6
:1029E0003B0CA3704FEA1C2363714FEA1C43277012
:1029F00084F804C0A3713F0E0B0A4FEA1C6C2172CD
:102A00002273E77084F807C063720B0C100A090E7A
:102A1000A372130C120EE1726073A373E27309B018
:102A2000BDE8F08FDFF81CB0DFF81CA0DFF80C80E9
:102A3000DFF80C9018E700BFC42F0020C43400203A
:102A4000C4380020C4300020C43C00202DE9F04FE1
:102A5000D0E900345B105F1E08682368CD688E687B
:102A60008BB0CDE9082758404A686368E16805974C
:102A70005A40A3686940002F04F1100583EA060359
:102A8000079540F3D381DFF894A3DFF89483DFF850
:102A900094B3CDF810B0CDE9022A04F1300EDD4C2C
:102AA0000194C346019FC4B2DDB257F824C09DF81B
:102AB000084057F8255057F82420029CCEB20EF15A
:102AC000200E57F82660270E5EF8404C5BF82780F2
:102AD0008CEA040C1F0E5EF83C4C5BF827A06240A9
:102AE0000F0E5EF8384C5BF827906540070E5EF8D5
:102AF000344C5BF82770664085EA0909C1F3072466
:102B0000039D8CEA080C86EA070855F82470049E99
:102B1000C0F30724C1F3074155F8244056F82110AB
:102B200082EA0A0AC0F30740029A8AEA040A8AEA99
:102B3000010A56F82010C2F307202C4655F8205001
:102B400089EA050989EA01093546C3F30721C2F379
:102B50000742C3F3074356F8222054F821608CEA59
:102B6000070C55F8237088EA06088CEA070C88EAF7
:102B700002085FFA8CF3019A52F823704FEA1A6345
:102B80005BF82300C8F30723474054F8233002932F
:102B9000C9F30743104655F823105FFA8AF352F839
:102BA00023204FEA19635BF823305A40CCF3072304
:102BB000069254F82320C8F3074355F823605FFAC0
:102BC00089F34FEA1C6550F823405EF8300C5BF83F
:102BD00025504FEA186378405BF82330039F5C4030
:102BE000029B58404840069B5EF82C1C59404A40C6
:102BF00082EA060302935EF8283C0199049A634036
:102C00005FFA88F8CAF3072451F8281057F82440CF
:102C1000CCF3074C4D40634052F82C105EF8244C26
:102C2000C9F30729CAF3074A57F8296052F82A70EE
:102C30004B4085EA0401059C7140013C81EA070193
:102C400005947FF42FAF079C099D029AD846DDE9D1
:102C500003AB04EB45140794019FC4B257F824500A
:102C6000140E58F824406540D4B257F824601C0E66
:102C700058F824407440DEB201943C4657F8267060
:102C80000E0E58F826607E40CFB254F82790079C6D
:102C9000070E58F8277089EA0709C1F30727C1F31F
:102CA00007415AF827C05BF82170C0F30721C0F331
:102CB00007405AF821E05BF82010C3F30728C2F35D
:102CC0000720C3F307435AF820005AF828805BF81E
:102CD00023A023686B4083EA0C0C019D23466468A3
:102CE00065409C68DB6866408CEA0A0C704089EAA3
:102CF0000303C2F30742414085EA0E0E83EA080847
:102D00005FFA8CF0444B5BF8222013F800A08EEAA7
:102D10000707380E88EA02021E5CC2F30720C1F3DF
:102D20000729185C0190C1F3074013F800E0F8B2DE
:102D300013F800B0080E13F80080CCF307201C5CD9
:102D40000294C2F307404FEA1C641D5C0395C8B2AD
:102D5000150E195C079800698AEA000080EA06608F
:102D6000019E80EA0620079E80EA0E4E70698BEA7B
:102D7000000080EA0868029888EA00280398D2B226
:102D800088EA0048B0694140585D9D5CF269554051
:102D90001A5D089C81EA0061C7F30720CCF3074C59
:102DA00085EA026513F80920185C85EA022513F804
:102DB0000C2081EA0021C7F3074781EA02424FEA6B
:102DC0001E21DB5D61704FEA1E41A1704FEA1821A0
:102DD00061714FEA184185EA034384F800E084F802
:102DE00004802272A171100C110A4FEA1E6E4FEA84
:102DF0001868120E2373617284F803E0190A84F8CC
:102E00000780A072E2721A0C1B0E6173A273E37347
:102E10000BB009E0EC410020EC400020EC45002024
:102E2000EC4D0020EC490020BDE8F08F044CDFF8A9
:102E30001480DFF814A0DFF814B001940CE700BF91
:102E4000EC410020EC4D0020EC450020EC49002036
:102E50008C46BCF1010F114608B51A4603D0FFF7A6
:102E6000F5FD002008BDFFF701FC002008BD00BFF4
:102E70002DE9F047140784B0DDE90C8A6AD10646D3
:102E80000C461D4699BB72B30AF10F0A02EB0A0900
:102E90005F1ED8F80000D8F80410D8F80820D8F839
:102EA0000C30EC46ACE80F00AAF10F024146304668
:102EB000FFF7CCFDAAF110023B4612F8011F13F8F0
:102EC000010F924581EA00011170F6D1EC46BCE891
:102ED0000F000AF1100AD14508F110082860696056
:102EE000AA60EB60D5D1002004B0BDE8F087002ACD
:102EF000F9D008F10F0802EB08095F1EA8F11003D2
:102F000039460AF1FF3213F801CF11F8010F43459A
:102F10008CEA000C02F801CFF5D1012C5246514643
:102F2000304614D0FFF792FD08F11008DAF80000DF
:102F3000DAF80410DAF80820DAF80C30EB60C14552
:102F400028606960AA600AF1100AD7D1CBE7FFF7C1
:102F50008DFBE9E76FF02100C6E700BF2DE9F047E0
:102F6000089E1C68DDE9095798468146D1B105EBFA
:102F7000020A62B184B1325D15F8011B631C4A403C
:102F8000554507F8012B325503F00F04F2D1C8F86C
:102F900000400020BDE8F087324631464846FFF742
:102FA00065FBE8E7002AF2D005EB020A6CB1325D5E
:102FB00015F8013B611C5A40554507F8012B335564
:102FC00001F00F04E3D0002CF1D1324631464846DF
:102FD000FFF74CFBEBE700BF2DE9F04F83B0DDE9D5
:102FE0000CB60E9F1568924679B1984606EB01091A
:102FF0008DB11BF8053016F8012B013553404E45B5
:1030000007F8013B05F00F05F2D10020CAF8005087
:1030100003B0BDE8F08F5A4641460190FFF726FB0A
:10302000019808F1100313F8014D0134E4B21C704B
:10303000002CDED19845F6D1DBE700BF4FF4847257
:1030400000210EF060BA00BF38B100F58471002293
:103050000346013081421A70FAD17047002370B5DF
:10306000C0E9003300F1070C00F10804E6460EF851
:10307000013F0133B3F5807FF9D100F2071600203C
:10308000034682428CBF0D180D461CF801EF2D78C7
:1030900073442B44DBB288BF0130E55C8CF80050F0
:1030A00098BF0120664504F803E0EAD170BD00BF77
:1030B00070B5D0E90054F1B1561800F1080C511E5A
:1030C00003F1FF3E013E0135EDB21CF8052014442A
:1030D000E4B21CF804300CF8053013440CF804205A
:1030E000DBB211F8012F1CF803308E4283EA020391
:1030F0000EF8013FE7D1C0E90054002070BD00BFC9
:103100002DE9F0470B6814688A469146A0F1040E39
:1031100000F13C065EF8047F254683EA0704C4F309
:1031200007434FEA146803F5897308F11208C4F3E2
:10313000072707F212275FFA84FC50F8233050F873
:10314000281050F827200CF2123C0B4450F82C7039
:1031500053403B44764583EA0503DBD1056C406C64
:103160006B404440CAF80040C9F80030BDE8F08721
:1031700041F2480200210EF0C6B900BF40B100F58F
:103180008252083200210346013082421970FAD17E
:10319000704700BFA2F12003B3F5D07F67D8530773
:1031A00065D12DE9F0410546D60805F5A25C314F01
:1031B000314A82B000F244400CF1040CA0F5806367
:1031C0003C4601E054F8042F43F8042F8342F9D120
:1031D00003F58060604504D0D7F8002407F58067C8
:1031E000ECE7DFF89CC0254FA5F1040E0CF1440874
:1031F000002300220424C85C01339E4298BF0023B0
:10320000013C40EA0222F6D17A40C4454EF8042F30
:1032100002D05CF8047FECE7CDE900442E1D01AA42
:1032200069462846FFF76CFFDDE9002345F82420B6
:1032300046F824300234122CF1D105F5806605F5EC
:10324000A057A6F5806401AA69462846FFF758FFF3
:10325000DDE90023C4E912230834A642F3D106F5C0
:103260008066B742EDD1002002B0BDE8F0816FF07A
:1032700015007047E4E00400A60B31D1886A3F24B2
:103280009CE00400F0B55468D2F800C083B09CFA0A
:103290008CF224BACDE900241D46C9BB86460EF146
:1032A0000806483050F8043DA44682EA0304C4F3FB
:1032B0000742270E02F589721237C4F3072101F283
:1032C0001221E3B25EF822205EF827705EF821102A
:1032D00003F212333A445EF823304A401A44B042B3
:1032E00082EA0C02DED1DEE900314A405C40230C68
:1032F000210E100E6B70230A2970AB70110C130A8B
:1033000028710020EC706971AB71EA7103B0F0BDF7
:1033100001AA6946FFF7F4FEDDE90042E7E700BFD6
:103320002DE9F04B540782B0DDE90A9B5AD10546DE
:103330000F461C4669BB42B30BF1070B02EB0B08AF
:103340005E1ED9F80000D9F804106B4603C34A4644
:10335000ABF1070300212846FFF794FFABF108010A
:10336000334611F801CF13F8012F8B458CEA020C7C
:1033700081F800C0F5D16B4603CB0BF1080BD845A3
:1033800009F1080920606160DBD1002002B0BDE8CE
:10339000F08B002AF9D009F1070902EB09085E1E3B
:1033A000A9F1080331460BF1FF3213F801CF11F8F0
:1033B000010F4B458CEA000C02F801CFF5D15B46BA
:1033C0005A463946284609F10809FFF75BFFDBF842
:1033D0000030DBF804206260C84523600BF1080B65
:1033E000DED1D2E76FF01700D0E700BF2DE9F0473C
:1033F000089E1C68DDE909579A468146D9B105EB5C
:10340000020862B184B1325D15F8011B631C4A40A9
:10341000454507F8012B325503F00704F2D1CAF8ED
:1034200000400020BDE8F08733463246012148467F
:10343000FFF728FFE7E7002AF1D005EB02086CB19F
:10344000335D15F8012B611C5340454507F8013BDE
:10345000325501F00704E2D0002CF1D13346324658
:1034600001214846FFF70EFFEAE700BF2DE9F84FBC
:103470000C9E1468DDE90AB5914679B182469846FA
:103480006F1884B11BF8043015F8012B0134534038
:10349000BD4206F8013B04F00704F2D1C9F8004030
:1034A0000020BDE8F88F5B46424601215046FFF7F9
:1034B000E9FE08F1080313F8011D0131C9B21970C2
:1034C0000029DFD19845F6D1DCE700BF70B50B6865
:1034D0000468496840681D4D1D4E84EA030C48404D
:1034E0001C4C4FEA1C635FFA8CF1EB5C615C41EAB7
:1034F0000361030E16F803E0C3B2EB5C164D43EA1A
:103500000E63CCF3074ECCF3072C16F80E6041EA9D
:10351000064115F80C6041EA0621C0F30746C0F3E6
:103520000720AD5D205C43EA054343EA0023D2E96E
:10353000004081EA336183EA314381EA3321634009
:1035400083EA31234140C2E9003170BDE4F0040058
:10355000E4F10400E4F30400E4F204004FF48A729E
:1035600000210DF0D0BF00BF38B100F58A710022F4
:103570000346013081421A70FAD170472DE9F04FAD
:10358000C9B013460290402200F1040A06460C46D8
:1035900014A800211D4600930DF0B5FF4FF488726A
:1035A000002150460DF0AFFFC02D0AD0B5F5807F49
:1035B00007D0802D00F034826FF0230049B0BDE8C1
:1035C000F08F009B2146029CDA084FF00403236031
:1035D00008BF012214A80DF06DFF009B9DF850401C
:1035E0009DF853709DF851509DF85260C02B07D143
:1035F00018AB1AA913F8012BD2438B42DA71F9D117
:10360000012301932C234FF0FF3B4FF01908079340
:103610003B230493CDF818A005940395784908A896
:1036200090224FF0CC094FF0660E9E234FF0A00C75
:103630004FF08B0A7F243B250CE091F808C04B7AB1
:1036400091F80AE0CC7A0D7B91F80D908A7B91F885
:103650000FA008311B044FEA094943EA0C6349EA09
:103660000569234349EA0A0943EA0E2349EA02228B
:10367000C0E90032634B994200F10800DDD14022DD
:10368000002124A8DDE9054A039D0DF03CFF23AA93
:1036900015AB2BA907E013F8044C13F8035C13F8DF
:1036A000026C13F8017C2D0445EA0464274347EAC1
:1036B000062642F8046F8A4203F10403EBD1289AEC
:1036C000249B53402C93259A299B53402D93269A53
:1036D0002A9B53402E932B9A279B08A953402CA832
:1036E0002EAA2F93FFF7F2FE2CAA2EA80AA9FFF705
:1036F000EDFE30A8134653F8041B53F8242C8342E4
:1037000082EA010243F8042CF5D10CA92CA82EAAB8
:10371000FFF7DCFE2CAA2EA80EA9FFF7D7FE009B10
:10372000802B19D92C9A289B534030932D9A299B92
:10373000534031932E9A2A9B534032932F9A2B9BBE
:1037400010A9534030A832AA3393FFF7BFFE30AA26
:1037500032A812A9FFF7BAFE019B4FEA031E249B71
:103760003493259B3593269B3693279B3793264B83
:103770000EF101061E440F2303F01F0134AF012098
:103780003A46C1F120040F33C8B1DDE93405E54004
:10379000884068401061DDE93505E54088406840B3
:1037A0005061DDE93605E540884068409061379812
:1037B000349D00FA01F125FA04F46140D1614B2BEC
:1037C00002F110020CD016F8010B03F01F01C1F139
:1037D00020040F330028D8D14B2B02F11002F2D174
:1037E000019BDFF8289003EB83009B000493030107
:1037F000039309EB001007F150033A46002109E05A
:10380000E4F404000CF50400B4F5040014F504001D
:1038100010F9011F4D1C1CBF14684AF821400432E6
:103820009342F5D1009A802A44D9289A3492299A51
:1038300035922A9A36922B9A3792864A0EF1040CC8
:1038400094443E460F251C461CF8011B05F01F033F
:10385000C3F120020F35C9B1349935989940D04051
:1038600041403161359936989940D040414071616D
:10387000369937989940D0404140B1613799349892
:1038800001FA03F320FA02F25340F3614B2D06F1E3
:103890001006D9D1039A02F11300234648443A4650
:1038A00010F9011F4C1C1CBF14684AF82140043257
:1038B0009342F5D12C9A34922D9A35922E9A3692C3
:1038C0002F9A3792634A0EF1090C94440F221E4638
:1038D000012402F01F033946C3F120050F32C4B1A1
:1038E000DDE934049840EC4060400861DDE93504CE
:1038F0009840EC4060404861DDE936049840EC4077
:10390000604088613798349C00FA03F3EC406340D0
:10391000CB614B2A01F110010CD01CF8014B02F0D5
:103920001F03C3F120050F32002CD9D14B2A01F11E
:103930001001F2D1039A02F12801334649443A4674
:1039400001E011F901BFBBF1FF3F1CBF10684AF84D
:103950002B0004329342F4D1009A802A42D93D4A86
:103960000EF10C0C9444309A3492319A3592329A7A
:103970003692339A379239460F221E461CF8014B75
:1039800002F01F03C3F120000F32CCB1349C359DEF
:103990009C40C5406C400C61359C369D9C40C540A8
:1039A0006C404C61369C379D9C40C5406C408C619E
:1039B000379C349D04FA03F325FA00F04340CB61B1
:1039C0004B2A01F11001D9D1039A3B32334691447D
:1039D00019F9012F511C1CBF39684AF8221004370D
:1039E000BB42F5D1019A049B079813449B461A4B9E
:1039F00003EB8B0B029B013003EB8002104650322D
:103A000001E01BF9018FB8F1FF3F1CBF5AF82830C5
:103A1000036004308242F4D1002049B0BDE8F08F49
:103A200003233360E36820686168A26814AD0FC5A2
:103A30000023019320239DF850409DF853709DF87A
:103A400051509DF8526007934FF0040B4FF015084A
:103A5000DEE500BFB4F50400D4F5040070B5C6B0CF
:103A60000D46164600214FF48A72044601A80DF057
:103A70004AFD3246294601A8FFF780FD002841D1C2
:103A8000019B2360A3F1040CBCFA8CFC4FEA5C1C84
:103A90004FEACC0C0CF1180102AB03EBC10253F856
:103AA000313063605368A3609368E360D368236137
:103AB000A2F1080E04F1140504F11C030CF1160127
:103AC000103AD2E90264013943E90264A2F1080222
:103AD00003F10803F5D1CCF100030EEBC3030CF1A5
:103AE000150C05EBCC0C53F8B82CCCF8082053F887
:103AF000B42CCCF80C20A83B53F8082C53F8043C09
:103B0000CCE9042301AB00211A460133117046AA07
:103B10009342F9D146B070BD2DE9F0431468456871
:103B20005168D0F8008024BA6C40856809BA1E46F6
:103B30009368D2686940C5681BBA6B40056985B057
:103B400012BA6A4000940191029300F114070392A3
:103B5000B8F1000F4BD03C4645462146684602AAC4
:103B6000FFF7B4FC6A4604F1080102A8FFF7AEFCB7
:103B700002AA04F110016846FFF7A8FC6A4604F1A6
:103B8000180102A8FFF7A2FC02AA04F1200168466E
:103B9000FFF79CFC013D6A4604F1280102A8FFF7EB
:103BA00095FCEDB1DDF800C0216B019BDDF80C90B8
:103BB000E26B606B0CEA010183EAF171029B42EA5D
:103BC00009025A40A36B084302EA030E80EA0C0084
:103BD00089EAFE73CDE90001CDE902234034BCE758
:103BE000DDE90232DDE9004107EB8817103F386854
:103BF000434078684240B8684440F868F3704140F8
:103C0000180E3070180C1B0AB370130E3371130C9E
:103C1000F2717371120A230E7070B271080E220ACB
:103C20003372230C7372B2720B0A0A0C30730020C9
:103C3000F472F1737273B37305B0BDE8F08300BF23
:103C40002DE9F047140784B0DDE90C8A67D10646F8
:103C50000C461D46A1BB7AB30AF10F0A02EB0A0912
:103C60005F1ED8F80000D8F80410D8F80820D8F85B
:103C70000C30EC46ACE80F00AAF10F0342460021DD
:103C80003046FFF749FFAAF110023B4612F8011F28
:103C900013F8010F924581EA00011170F6D1EC464C
:103CA000BCE80F000AF1100AD14508F1100828609D
:103CB0006960AA60EB60D4D1002004B0BDE8F08751
:103CC000002AF9D008F10F0802EB08095F1EA8F1DD
:103CD000100339460AF1FF3213F801CF11F8010F32
:103CE00043458CEA000C02F801CFF5D15346524609
:103CF0002146304608F11008FFF70EFFDAF80010F1
:103D0000DAF80420DAF80830DAF80C00E860C14587
:103D100029606A60AB600AF1100AD8D1CCE76FF075
:103D20002500CAE72DE9F047089E1C68DDE9095720
:103D30009A468146D9B105EB020862B184B1325D81
:103D400015F8011B631C4A40454507F8012B325505
:103D500003F00F04F2D1CAF800400020BDE8F0875C
:103D60003346324601214846FFF7D6FEE7E7002AF0
:103D7000F1D005EB02086CB1335D15F8012B611C25
:103D80005340454507F8013B325501F00F04E2D09E
:103D9000002CF1D13346324601214846FFF7BCFEE4
:103DA000EAE700BF2DE9F84F0C9E1468DDE90AB57B
:103DB000914681B182461F4605EB010884B11BF88C
:103DC000043015F8012B01345340454506F8013BFA
:103DD00004F00F04F2D1C9F800400020BDE8F88FCC
:103DE0005B463A4601215046FFF796FE07F1100365
:103DF00013F8011D0131C9B219700029DFD19F42AA
:103E0000F6D1DCE72DE9F04F2DED028B97B008EEEF
:103E1000103A289B0691043B0C2BDDE9254500F266
:103E20009F81289BDB0700F19B81229B073B062B90
:103E300000F29681249BB3F57F4F00F29181934667
:103E4000289A002B229BA2F102064FEA5602DBB20F
:103E500014BF4026002646EAC206C3F10E02D2B2C3
:103E6000C3F10F031643DFB218EE101A0592804615
:103E7000229A0397F6B20DF129008DF828600DF013
:103E800019FB0DF13702D11B5B4602F801398A425A
:103E90004FEA1323F9D1002B40F062810DF129097B
:103EA000CDE90E33CDE910330DF1480A49460EAA8B
:103EB00002E0137811F8016B734002F8013B5245A0
:103EC000F7D109AB00930EAB19461022404600F023
:103ED000B3FA0346002840F08680249A002A40F076
:103EE00088800AAF059B229A8DF8483018EE101A88
:103EF0000DF149000DF0DEFA229B039A581C504444
:103F000000210DF000FB01238DF85730BBF1000FAD
:103F100041D03B4608EE108ADDF818805F460DF16F
:103F200047099B46102F3E4628BF1026B8F1000FC8
:103F300000F0C88009AB009318EE100A5B4610220F
:103F4000514600F079FA034600284CD103F158029B
:103F50006A44013312F8301C225CDBB24A40B3429F
:103F60002A541846F2D3B8F1010F00F0D480039B15
:103F70000DF1570235443444BF1BD11A1378013375
:103F8000DBB202F801390BB99142F7D1002FC9D148
:103F900018EE108A5F46059B039AC3F10F000021BB
:103FA00050440DF0B0FA09AB009351463B464046F1
:103FB000102200F041FA0346A8B90DF137020DF1C5
:103FC00027000DF1470512F8011F10F8014F954227
:103FD00081EA04011170F6D1289A279803930EA95B
:103FE0000DF068FA039B184617B0BDEC028BBDE8D4
:103FF000F08F249A249B0A900E2AC3F307238DF88E
:104000002920CDE90B0028BF0E220D90239907929D
:104010000DF12A008DF8283004930AAF0DF04AFA0A
:104020000DF14706049B0DF1370201E019F8013B41
:1040300012F8011F4B40B2421370F7D109AB009345
:104040000EAB19461022404600F0F6F90346002850
:10405000C9D12499079A891A3FF444AF2398CDF81F
:104060001CB0024404938946934625944C46049B15
:10407000102C28BF1024C7E90033C7E90233594682
:10408000224638460DF016FA0DF127010DF13703DF
:1040900013F8012F11F8010FB34282EA00021A70DF
:1040A000F6D109AB00930EAB10221946404600F042
:1040B000C3F948BBB9EB0409A344D7D1DDF81CB060
:1040C000259C0FE72146CBE90088CBE902883246E0
:1040D00058460DF0EFF90DF137030DF1270113F8F4
:1040E000012F11F8010F4B4582EA00021A70F6D138
:1040F00009AB00930EAB18EE100A1022194600F01F
:104100009BF900283FF416AF0346184617B0BDECE4
:10411000028BBDE8F08F0023CBE90033CBE90233FB
:104120002946324658460DF0C5F90DF137030DF119
:10413000270113F8012F11F8010F994582EA0002B7
:104140001A70F6D109AB00930EAB18EE100A1022CC
:10415000194600F071F900283FF409AF0346D4E78F
:104160006FF00C033FE700BF442200210DF0CBB9F4
:104170002DE9F041054617460846012219461E461C
:1041800000F0CAF8A8B14369102B044611D12846A3
:1041900000F0E2F82146284600F0FEF808B1BDE83C
:1041A000F0813246394628460123BDE8F04100F04F
:1041B0001BB96FF00C00F2E710B5044600F0CCF824
:1041C00004F14401002223460134A1421A70FAD1BD
:1041D00010BD00BF10B588B000930A9B01930B9BE4
:1041E00002930C9B03930D9B0493DDE90E34CDE900
:1041F000053413460A460021FFF704FE08B010BD3F
:10420000F0B58DB008AE129C0194139C0294149CDE
:10421000179D0394159C00930F46134605960A4676
:10422000049401210695169EFFF7ECFD98B995B10F
:104230000346024603F13001694416F802C011F842
:10424000102C0133DBB28CEA020CAB4240EA0C00CA
:104250001A46EFD308B90DB0F0BD37B1274400229C
:1042600023460134BC421A70FAD16FF00E00F2E717
:10427000891A0ED0002300B59C465FFA81FE0133F7
:104280008444DBB28B420CF802E09C46F7D35DF825
:1042900004FB704740B33AB330B5451815F801EC4C
:1042A000BEFA8EF35B09A1EB0E048E4594BF9C46CB
:1042B00043F0010C146089B1C14310F8012B0B18B5
:1042C0009C428CBF0023012382EA0E0213FB02F3FF
:1042D00043EA0C0385425FFA83FCEED1BCF1000F88
:1042E000024808BF002030BD01487047009EFFFF14
:1042F000009FFFFF074B5A6852B1083302E053F8A2
:10430000042C2AB113F8081C814203F10803F6D1EA
:1043100010467047B8FF040010B50C4C636893B1A9
:10432000A44602E0DCF804306BB19C6994F800E02C
:1043300086450CF1080CF5D15C688C42F2D193F8FB
:1043400001E09645EED1184610BD00BFB8FF04004D
:10435000442200210DF0D7B8E8B1036C10B5044633
:1043600053B103F1240000211A4601338342117036
:10437000FAD1206C0AF006FAE06B18B123689B6949
:104380005B6A984704F144010022234601348C42C1
:104390001A70FAD110BD7047D1B138B50446A8B132
:1043A0000D46442200210DF0AEF8AB691B6A984718
:1043B000E06378B125606B78022B05D1064A074B84
:1043C0000020C4E9032338BD002038BD044838BDAF
:1043D00003487047034838BD71420200954202000D
:1043E000009FFFFF809EFFFF10B330B40468BCB194
:1043F0002569AD0711D5012B4260037213D094F8E3
:1044000001C0BCF1030F0ED0BCF1050F0BD03BB9BE
:10441000A369C06BDB6930BC184765689542EAD078
:10442000044830BC7047A369C06B9B6930BC184717
:1044300000487047009FFFFF2DE9F04F87B0DDF87F
:1044400040800593002857D0154602680446002A8C
:1044500052D0B8F1000F4FD00E460021C8F800101E
:104460005178D2F8149001291ED006297CD0B9F1D8
:10447000000F00F0E180059B9E4235D0022923D039
:1044800003295FD0052939D0072940F0D3809369EB
:10449000E06B5C69059B32462946A04708B9C8F81D
:1044A000005007B0BDE8F08F4D4540F0C1809269E3
:1044B000C8F80050556890F90810C06B3246AC46F9
:1044C00007B0BDE8F04F604794F90830D4F824A055
:1044D00033BBA9EB0A03AB4228D2BAF1000F77D164
:1044E000002D4BD10020DCE7436A2BB9B5FBF9F373
:1044F00009FB1353002BC1D05048D2E79369059AAA
:10450000CDE9016204F1140200921E69E06B04F12E
:10451000280304F124022946B0470028C1D1BEE790
:10452000012BDAD1A9EB0A03AB42D6D90AF1140068
:104530002A46314620440CF0BDFF636A2B4400201C
:104540006362AEE79369059ACDE9016204F128023E
:104550000092DE6894F90810E06B04F124032A4607
:10456000B04700289DD19AE7C06BC8F8005032468A
:10457000294607B0BDE8F04F01F098BAB5FBF9FA4B
:1045800009FB1A5ABAF1000F4CD0A5EB0A055246A6
:10459000711904F114000CF08DFF636A53446362D7
:1045A000002D9FD094F908102368059A9B69CDE9E6
:1045B00000622A469E68E06B04F12803B047002899
:1045C0007FF46FAFD8F800302B44C8F8003068E7AC
:1045D000A9EB0A0B0AF114005A46314620440CF0AC
:1045E00069FF234694F9081053F8142B926900933D
:1045F000059B01939368E06B1F464A4604F128032C
:10460000B84700287FF44DAF059B4B440593D8F87D
:104610000030A5EB09054B44C8F800305E44554412
:1046200060625DE794F908100029BDD1CA46ACE785
:10463000034836E7034834E7034832E7009FFFFFAB
:10464000809DFFFF809FFFFF809CFFFF10B5044609
:1046500000F0ECFA2046BDE810400AF093B800BF25
:1046600010B54FF4C07101200AF078F8044608B183
:1046700000F0D6FA204610BD00F026BD00F012BDB5
:1046800001F06AB811461A4600F08CBE00F0F6BC84
:1046900000F0E2BC10B5044600F0B8FA2046BDE8D0
:1046A00010400AF06FB800BF10B5802101200AF059
:1046B00055F8044608B100F0A5FA204610BD00BF29
:1046C00000F0B0BC00F0A8BC00F004BE11461A46D1
:1046D00000F00EBD10B50446FFF76EFD2046BDE8A4
:1046E00010400AF04FB800BF10B5442101200AF075
:1046F00035F8044608B1FFF737FD204610BD00BF6E
:1047000013460A460521FFF733BD00BF13460A468C
:104710000221FFF72DBD00BF10B5044601F044FA99
:104720002046BDE810400AF02DB800BF10B54FF488
:10473000C87101200AF012F8044608B101F002F92C
:10474000204610BD13460A46052101F001B900BFFD
:1047500013460A46022101F0FBB800BF10B504461B
:10476000FEF702FF2046BDE810400AF00BB800BF7C
:1047700010B54FF48A71012009F0F0FF044608B12A
:10478000FEF7ECFE204610BDFFF768B9FEF7F6BE57
:10479000FFF708BBFFF7C6BAFFF752BAFFF7BCB97D
:1047A00010B50446FEF7EAFC2046BDE8104009F0CB
:1047B000E9BF00BF10B541F24801012009F0CEFF6A
:1047C000044608B1FEF7D4FC204610BDFEF7E2BC5B
:1047D000FEF74CBEFEF70ABEFEF7A2BDFEF752BDC5
:1047E00010B50446FEF730FC2046BDE8104009F045
:1047F000C9BF00BF10B54FF48471012009F0AEFFAE
:10480000044608B1FEF71AFC204610BD10B512F0A0
